:100000000C942A000C9434000C9434000C943400AA
:100010000C9434000C9434000C9434000C94340090
:100020000C9434000C9434000C9434000C94340080
:100030000C9434000C9434000C9434000C94340070
:100040000C9434000C9434000C9434000C94340060
:100050000C94340011241FBECFE5D8E0DEBFCDBF25
:100060000E9436000C9446000C94000088EF81BB7F
:1000700012BA85E783BF19BE14BA8FEF809B02C006
:1000800084BBFCCF8099FACF14BAF8CFF894FFCF95
:00000001FF
